{
  "contractName": "CryptoRose",
  "abi": [
    {
      "constant": true,
      "inputs": [
        {
          "name": "",
          "type": "uint256"
        }
      ],
      "name": "RosesGold",
      "outputs": [
        {
          "name": "idGold",
          "type": "uint256"
        },
        {
          "name": "loverGold",
          "type": "address"
        },
        {
          "name": "nameGold",
          "type": "string"
        },
        {
          "name": "descriptionGold",
          "type": "string"
        },
        {
          "name": "fromGold",
          "type": "string"
        }
      ],
      "payable": false,
      "stateMutability": "view",
      "type": "function"
    },
    {
      "constant": true,
      "inputs": [],
      "name": "getNumberOfRosesPurple",
      "outputs": [
        {
          "name": "",
          "type": "uint256"
        }
      ],
      "payable": false,
      "stateMutability": "view",
      "type": "function"
    },
    {
      "constant": false,
      "inputs": [],
      "name": "kill",
      "outputs": [],
      "payable": false,
      "stateMutability": "nonpayable",
      "type": "function"
    },
    {
      "constant": true,
      "inputs": [
        {
          "name": "",
          "type": "uint256"
        }
      ],
      "name": "Roses",
      "outputs": [
        {
          "name": "id",
          "type": "uint256"
        },
        {
          "name": "lover",
          "type": "address"
        },
        {
          "name": "name",
          "type": "string"
        },
        {
          "name": "description",
          "type": "string"
        },
        {
          "name": "from",
          "type": "string"
        }
      ],
      "payable": false,
      "stateMutability": "view",
      "type": "function"
    },
    {
      "constant": false,
      "inputs": [
        {
          "name": "_name",
          "type": "string"
        },
        {
          "name": "_description",
          "type": "string"
        },
        {
          "name": "_from",
          "type": "string"
        }
      ],
      "name": "dedicateRose",
      "outputs": [],
      "payable": true,
      "stateMutability": "payable",
      "type": "function"
    },
    {
      "constant": true,
      "inputs": [],
      "name": "getRosesDedicated",
      "outputs": [
        {
          "name": "",
          "type": "uint256[]"
        }
      ],
      "payable": false,
      "stateMutability": "view",
      "type": "function"
    },
    {
      "constant": true,
      "inputs": [],
      "name": "getRosesPurpleDedicated",
      "outputs": [
        {
          "name": "",
          "type": "uint256[]"
        }
      ],
      "payable": false,
      "stateMutability": "view",
      "type": "function"
    },
    {
      "constant": true,
      "inputs": [],
      "name": "getRosesGoldDedicated",
      "outputs": [
        {
          "name": "",
          "type": "uint256[]"
        }
      ],
      "payable": false,
      "stateMutability": "view",
      "type": "function"
    },
    {
      "constant": true,
      "inputs": [],
      "name": "getNumberOfRoses",
      "outputs": [
        {
          "name": "",
          "type": "uint256"
        }
      ],
      "payable": false,
      "stateMutability": "view",
      "type": "function"
    },
    {
      "constant": false,
      "inputs": [
        {
          "name": "_namePurple",
          "type": "string"
        },
        {
          "name": "_descriptionPurple",
          "type": "string"
        },
        {
          "name": "_fromPurple",
          "type": "string"
        }
      ],
      "name": "dedicateRosePurple",
      "outputs": [],
      "payable": true,
      "stateMutability": "payable",
      "type": "function"
    },
    {
      "constant": true,
      "inputs": [
        {
          "name": "",
          "type": "uint256"
        }
      ],
      "name": "RosesPurple",
      "outputs": [
        {
          "name": "idPurple",
          "type": "uint256"
        },
        {
          "name": "loverPurple",
          "type": "address"
        },
        {
          "name": "namePurple",
          "type": "string"
        },
        {
          "name": "descriptionPurple",
          "type": "string"
        },
        {
          "name": "fromPurple",
          "type": "string"
        }
      ],
      "payable": false,
      "stateMutability": "view",
      "type": "function"
    },
    {
      "constant": false,
      "inputs": [
        {
          "name": "_nameGold",
          "type": "string"
        },
        {
          "name": "_descriptionGold",
          "type": "string"
        },
        {
          "name": "_fromGold",
          "type": "string"
        }
      ],
      "name": "dedicateRoseGold",
      "outputs": [],
      "payable": true,
      "stateMutability": "payable",
      "type": "function"
    },
    {
      "constant": true,
      "inputs": [],
      "name": "getNumberOfRosesGold",
      "outputs": [
        {
          "name": "",
          "type": "uint256"
        }
      ],
      "payable": false,
      "stateMutability": "view",
      "type": "function"
    },
    {
      "anonymous": false,
      "inputs": [
        {
          "indexed": true,
          "name": "_id",
          "type": "uint256"
        },
        {
          "indexed": true,
          "name": "_lover",
          "type": "address"
        },
        {
          "indexed": false,
          "name": "_name",
          "type": "string"
        }
      ],
      "name": "dedicateRoseEvent",
      "type": "event"
    },
    {
      "anonymous": false,
      "inputs": [
        {
          "indexed": true,
          "name": "_idGold",
          "type": "uint256"
        },
        {
          "indexed": true,
          "name": "_loverGold",
          "type": "address"
        },
        {
          "indexed": false,
          "name": "_nameGold",
          "type": "string"
        }
      ],
      "name": "dedicateRoseGoldEvent",
      "type": "event"
    },
    {
      "anonymous": false,
      "inputs": [
        {
          "indexed": true,
          "name": "_idPurple",
          "type": "uint256"
        },
        {
          "indexed": true,
          "name": "_loverPurple",
          "type": "address"
        },
        {
          "indexed": false,
          "name": "_namePurple",
          "type": "string"
        }
      ],
      "name": "dedicateRosePurpleEvent",
      "type": "event"
    }
  ],
  "bytecode": "0x606060405260008054600160a060020a033316600160a060020a0319909116179055610fef806100306000396000f3006060604052600436106100c45763ffffffff7c010000000000000000000000000000000000000000000000000000000060003504166313c9951681146100c9578063266b03241461027457806341c0e1b514610299578063777087be146102ae5780637862b961146102c4578063859c62b41461038e5780638994924d146103f457806398b5c8cb14610407578063b7e206ee1461041a578063c8c40ee31461042d578063d0e71052146104f7578063dd1a9afb1461050d578063f39b8a23146105d7575b600080fd5b34156100d457600080fd5b6100df6004356105ea565b604051858152600160a060020a038516602082015260a060408201818152855460026000196101006001841615020190911604918301829052906060830190608084019060c0850190889080156101775780601f1061014c57610100808354040283529160200191610177565b820191906000526020600020905b81548152906001019060200180831161015a57829003601f168201915b50508481038352865460026000196101006001841615020190911604808252602090910190879080156101eb5780601f106101c0576101008083540402835291602001916101eb565b820191906000526020600020905b8154815290600101906020018083116101ce57829003601f168201915b505084810382528554600260001961010060018416150201909116048082526020909101908690801561025f5780601f106102345761010080835404028352916020019161025f565b820191906000526020600020905b81548152906001019060200180831161024257829003601f168201915b50509850505050505050505060405180910390f35b341561027f57600080fd5b61028761061e565b60405190815260200160405180910390f35b34156102a457600080fd5b6102ac610625565b005b34156102b957600080fd5b6100df60043561064e565b6102ac60046024813581810190830135806020601f8201819004810201604051908101604052818152929190602084018383808284378201915050505050509190803590602001908201803590602001908080601f01602080910402602001604051908101604052818152929190602084018383808284378201915050505050509190803590602001908201803590602001908080601f01602080910402602001604051908101604052818152929190602084018383808284375094965061067f95505050505050565b341561039957600080fd5b6103a1610849565b60405160208082528190810183818151815260200191508051906020019060200280838360005b838110156103e05780820151838201526020016103c8565b505050509050019250505060405180910390f35b34156103ff57600080fd5b6103a1610970565b341561041257600080fd5b6103a1610a8a565b341561042557600080fd5b610287610ba4565b6102ac60046024813581810190830135806020601f8201819004810201604051908101604052818152929190602084018383808284378201915050505050509190803590602001908201803590602001908080601f01602080910402602001604051908101604052818152929190602084018383808284378201915050505050509190803590602001908201803590602001908080601f016020809104026020016040519081016040528181529291906020840183838082843750949650610baa95505050505050565b341561050257600080fd5b6100df600435610d45565b6102ac60046024813581810190830135806020601f8201819004810201604051908101604052818152929190602084018383808284378201915050505050509190803590602001908201803590602001908080601f01602080910402602001604051908101604052818152929190602084018383808284378201915050505050509190803590602001908201803590602001908080601f016020809104026020016040519081016040528181529291906020840183838082843750949650610d7895505050505050565b34156105e257600080fd5b610287610f13565b6003602081905260009182526040909120805460018201549092600160a060020a0390911691600281019181019060040185565b6006545b90565b60005433600160a060020a0390811691161461064057600080fd5b600054600160a060020a0316ff5b6001602081905260009182526040909120805491810154600160a060020a0316906002810190600381019060040185565b60028054600101905566ae153d89fe8000341161069b57600080fd5b60a06040519081016040908152600254808352600160a060020a03331660208085019190915282840187905260608401869052608084018590526000918252600190522081518155602082015160018201805473ffffffffffffffffffffffffffffffffffffffff1916600160a060020a0392909216919091179055604082015181600201908051610731929160200190610f19565b5060608201518160030190805161074c929160200190610f19565b50608082015181600401908051610767929160200190610f19565b5050600054600160a060020a031690503480156108fc0290604051600060405180830381858888f19350505050151561079f57600080fd5b33600160a060020a03166002547f81670dff0716b6dd4d3936e6f32c1a942fdd3554b96db7982f81860deedb81888560405160208082528190810183818151815260200191508051906020019080838360005b8381101561080a5780820151838201526020016107f2565b50505050905090810190601f1680156108375780820380516001836020036101000a031916815260200191505b509250505060405180910390a3505050565b610851610f97565b610859610f97565b600080610864610f97565b6000600254600014156108985760006040518059106108805750595b90808252806020026020018201604052509550610968565b6002546040518059106108a85750595b9080825280602002602001820160405250945060009350600192505b6002548311610902576000838152600160205260409020548585815181106108e857fe5b6020908102909101015260019384019392909201916108c4565b836040518059106109105750595b90808252806020026020018201604052509150600090505b838110156109645784818151811061093c57fe5b9060200190602002015182828151811061095257fe5b60209081029091010152600101610928565b8195505b505050505090565b610978610f97565b610980610f97565b60008061098b610f97565b6000600654600014156109be57600060405180591061088057505990808252806020026020018201604052509550610968565b6006546040518059106109ce5750595b9080825280602002602001820160405250945060009350600192505b6006548311610a2857600083815260056020526040902054858581518110610a0e57fe5b6020908102909101015260019384019392909201916109ea565b83604051805910610a365750595b90808252806020026020018201604052509150600090505b8381101561096457848181518110610a6257fe5b90602001906020020151828281518110610a7857fe5b60209081029091010152600101610a4e565b610a92610f97565b610a9a610f97565b600080610aa5610f97565b600060045460001415610ad857600060405180591061088057505990808252806020026020018201604052509550610968565b600454604051805910610ae85750595b9080825280602002602001820160405250945060009350600192505b6004548311610b4257600083815260036020526040902054858581518110610b2857fe5b602090810290910101526001938401939290920191610b04565b83604051805910610b505750595b90808252806020026020018201604052509150600090505b8381101561096457848181518110610b7c57fe5b90602001906020020151828281518110610b9257fe5b60209081029091010152600101610b68565b60025490565b600680546001019081905560029010610bc257600080fd5b68055de6a779bbac00003411610bd757600080fd5b60a06040519081016040908152600654808352600160a060020a03331660208085019190915282840187905260608401869052608084018590526000918252600590522081518155602082015160018201805473ffffffffffffffffffffffffffffffffffffffff1916600160a060020a0392909216919091179055604082015181600201908051610c6d929160200190610f19565b50606082015181600301908051610c88929160200190610f19565b50608082015181600401908051610ca3929160200190610f19565b5050600054600160a060020a031690503480156108fc0290604051600060405180830381858888f193505050501515610cdb57600080fd5b33600160a060020a03166006547f8f72d36167e3eceef7227a62b1e2683569b8af307c2c36f22e5ce3708677d6468560405160208082528190810183818151815260200191508051906020019080838360008381101561080a5780820151838201526020016107f2565b6005602052600090815260409020805460018201549091600160a060020a03909116906002810190600381019060040185565b600480546001019055670c7d713b49da00003411610d9557600080fd5b60045460659010610da557600080fd5b60a06040519081016040908152600454808352600160a060020a03331660208085019190915282840187905260608401869052608084018590526000918252600390522081518155602082015160018201805473ffffffffffffffffffffffffffffffffffffffff1916600160a060020a0392909216919091179055604082015181600201908051610e3b929160200190610f19565b50606082015181600301908051610e56929160200190610f19565b50608082015181600401908051610e71929160200190610f19565b5050600054600160a060020a031690503480156108fc0290604051600060405180830381858888f193505050501515610ea957600080fd5b33600160a060020a03166004547fd9945826504ea63c2463fa9425f26ac6c039d675475ce98e89b4b852f6e039d38560405160208082528190810183818151815260200191508051906020019080838360008381101561080a5780820151838201526020016107f2565b60045490565b828054600181600116156101000203166002900490600052602060002090601f016020900481019282601f10610f5a57805160ff1916838001178555610f87565b82800160010185558215610f87579182015b82811115610f87578251825591602001919060010190610f6c565b50610f93929150610fa9565b5090565b60206040519081016040526000815290565b61062291905b80821115610f935760008155600101610faf5600a165627a7a72305820297aa5e9eff7188cd7e97430775226ffef23e2c178510a4313657f45382ee8c20029",
  "source": "pragma solidity ^0.4.11;\n\nimport \"./Owned.sol\";\n\n\ncontract CryptoRose is Owned {\n\n\n//RED ROSE\n\n  // Custom types\n  struct Rose {\n    uint id;\n    address lover;\n    string name;\n    string description;\n    string from;\n  }\n\n  // State variables\n  mapping(uint => Rose) public Roses;\n  uint RoseCounter;\n\n\n  // Events\n  event dedicateRoseEvent (\n    uint indexed _id,\n    address indexed _lover,\n    string _name\n  );\n\n\n\n  // dedicate a Rose\n  function dedicateRose(string _name, string _description, string _from) payable public {\n    // a new Rose\n    RoseCounter++;\n    require ( msg.value > 49000000000000000);\n\n    // store this Rose\n    Roses[RoseCounter] = Rose(\n         RoseCounter,\n         msg.sender,\n         _name,\n         _description,\n         _from\n    );\n\nowner.transfer(msg.value);\n    // trigger the event\n    dedicateRoseEvent(RoseCounter, msg.sender, _name);\n  }\n\n\n\n  // fetch the number of Roses in the contract\n  function getNumberOfRoses() public constant returns (uint) {\n    return RoseCounter;\n  }\n\n\n  // fetch and returns all Rose IDs that have been dedicated\n  function getRosesDedicated() public constant returns (uint[]) {\n    // we check whether there is at least one Rose\n    if(RoseCounter == 0) {\n      return new uint[](0);\n    }\n\n    // prepare intermediary array\n    uint[] memory RoseIds = new uint[](RoseCounter);\n\n    uint numberOfRosesDedicated = 0;\n    // iterate over Roses\n    for (uint i = 1; i <= RoseCounter; i++) {\n      // keep only the ID of Roses not sold yet\n        RoseIds[numberOfRosesDedicated] = Roses[i].id;\n        numberOfRosesDedicated++;\n\n    }\n\n    // copy the RoseIds array into the smaller Dedicated array\n    uint[] memory Dedicated = new uint[](numberOfRosesDedicated);\n    for (uint j = 0; j < numberOfRosesDedicated; j++) {\n      Dedicated[j] = RoseIds[j];\n    }\n    return (Dedicated);\n  }\n\n  //Gold ROSE\n\n    // Custom types\n    struct RoseGold {\n      uint idGold;\n      address loverGold;\n      string nameGold;\n      string descriptionGold;\n      string fromGold;\n    }\n\n    // State variables\n    mapping(uint => RoseGold) public RosesGold;\n    uint RoseGoldCounter;\n\n\n    // Events\n    event dedicateRoseGoldEvent (\n      uint indexed _idGold,\n      address indexed _loverGold,\n      string _nameGold\n    );\n\n\n\n    // dedicate a Rose\n    function dedicateRoseGold(string _nameGold, string _descriptionGold, string _fromGold) payable public {\n      // a new Rose\n      RoseGoldCounter++;\n      require ( msg.value > 900000000000000000);\n      require ( RoseGoldCounter < 101);\n\n      // store this Rose\n      RosesGold[RoseGoldCounter] = RoseGold(\n           RoseGoldCounter,\n           msg.sender,\n           _nameGold,\n           _descriptionGold,\n           _fromGold\n      );\n\nowner.transfer(msg.value);\n      // trigger the event\n      dedicateRoseGoldEvent(RoseGoldCounter, msg.sender, _nameGold);\n    }\n\n\n\n    // fetch the number of Roses in the contract\n    function getNumberOfRosesGold() public constant returns (uint) {\n      return RoseGoldCounter;\n    }\n\n\n    // fetch and returns all Rose IDs that have been dedicated\n    function getRosesGoldDedicated() public constant returns (uint[]) {\n      // we check whether there is at least one Rose\n      if(RoseGoldCounter == 0) {\n        return new uint[](0);\n      }\n\n      // prepare intermediary array\n      uint[] memory RoseGoldIds = new uint[](RoseGoldCounter);\n\n      uint numberOfRosesGoldDedicated = 0;\n      // iterate over Roses\n      for (uint i = 1; i <= RoseGoldCounter; i++) {\n        // keep only the ID of Roses not sold yet\n          RoseGoldIds[numberOfRosesGoldDedicated] = RosesGold[i].idGold;\n          numberOfRosesGoldDedicated++;\n\n      }\n\n      // copy the RoseIds array into the smaller Dedicated array\n      uint[] memory DedicatedGold = new uint[](numberOfRosesGoldDedicated);\n      for (uint j = 0; j < numberOfRosesGoldDedicated; j++) {\n        DedicatedGold[j] = RoseGoldIds[j];\n      }\n      return (DedicatedGold);\n    }\n\n\n    //Purple ROSE\n\n  // Custom types\n  struct RosePurple {\n    uint idPurple;\n    address loverPurple;\n    string namePurple;\n    string descriptionPurple;\n    string fromPurple;\n  }\n\n  // State variables\n  mapping(uint => RosePurple) public RosesPurple;\n  uint RosePurpleCounter;\n\n\n  // Events\n  event dedicateRosePurpleEvent (\n    uint indexed _idPurple,\n    address indexed _loverPurple,\n    string _namePurple\n  );\n\n\n\n  // dedicate a Rose\n  function dedicateRosePurple(string _namePurple, string _descriptionPurple, string _fromPurple) payable public {\n    // a new Rose\n    RosePurpleCounter++;\n    require ( RosePurpleCounter < 2);\n    require ( msg.value > 99000000000000000000);\n\n\n\n\n    // store this Rose\n    RosesPurple[RosePurpleCounter] = RosePurple(\n         RosePurpleCounter,\n         msg.sender,\n         _namePurple,\n         _descriptionPurple,\n         _fromPurple\n    );\n\n    // trigger the event\n    owner.transfer(msg.value);\n    dedicateRosePurpleEvent(RosePurpleCounter, msg.sender, _namePurple);\n  }\n\n\n\n  // fetch the number of Roses in the contract\n  function getNumberOfRosesPurple() public constant returns (uint) {\n    return RosePurpleCounter;\n  }\n\n\n  // fetch and returns all Rose IDs that have been dedicated\n  function getRosesPurpleDedicated() public constant returns (uint[]) {\n    // we check whether there is at least one Rose\n    if(RosePurpleCounter == 0) {\n      return new uint[](0);\n    }\n\n    // prepare intermediary array\n    uint[] memory RosePurpleIds = new uint[](RosePurpleCounter);\n\n    uint numberOfRosesPurpleDedicated = 0;\n    // iterate over Roses\n    for (uint i = 1; i <= RosePurpleCounter; i++) {\n      // keep only the ID of Roses not sold yet\n        RosePurpleIds[numberOfRosesPurpleDedicated] = RosesPurple[i].idPurple;\n        numberOfRosesPurpleDedicated++;\n\n    }\n\n    // copy the RoseIds array into the smaller Dedicated array\n    uint[] memory DedicatedPurple = new uint[](numberOfRosesPurpleDedicated);\n    for (uint j = 0; j < numberOfRosesPurpleDedicated; j++) {\n      DedicatedPurple[j] = RosePurpleIds[j];\n    }\n    return (DedicatedPurple);\n  }\n\n\n\n\n  // kill the smart contract\n  function kill() onlyOwner {\n    selfdestruct(owner);\n  }\n\n//Random\n\n\n\n\n\n}\n",
  "sourcePath": "/Users/MJ/Documents/GitHub/rosesCrypto/contracts/CryptoRose.sol",
  "compiler": {
    "name": "solc",
    "version": "0.4.18+commit.9cf6e910.Emscripten.clang"
  },
  "schemaVersion": "1.0.1",
  "updatedAt": "2018-02-03T08:02:56.548Z"
}